:020000040800F2
:10000000F00E002029020008F11700089D170008D3
:10001000ED170008D1060008F125000800000000D7
:10002000000000000000000000000000611D00084A
:10003000AF160008000000006F1B00083D1F0008FD
:10004000430200084302000843020008430200087C
:10005000430200084302000843020008430200086C
:10006000430200084302000843020008430200085C
:10007000430200084302000843020008430200084C
:10008000430200084302000843020008430200083C
:10009000D506000843020008430200084302000896
:1000A000430200084302000843020008430200081C
:1000B000A91F000843020008C51F000843020008EA
:1000C00043020008430200084302000843020008FC
:1000D00043020008B5210008592200084302000825
:1000E00043020008430200084302000843020008DC
:1000F00043020008430200084302000843020008CC
:1001000043020008430200084302000843020008BB
:1001100043020008430200084302000843020008AB
:10012000430200084302000843020008430200089B
:10013000430200084302000843020008430200088B
:10014000430200084302000843020008430200087B
:10015000430200084302000843020008C9220008C5
:10016000430200084302000843020008430200085B
:10017000430200084302000843020008430200084B
:10018000430200084302000800F002F800F03CF8C7
:100190000AA090E8000C82448344AAF10107DA45E2
:1001A00001D100F031F8AFF2090EBAE80F0013F0F8
:1001B000010F18BFFB1A43F001031847F83800007D
:1001C00018390000103A24BF78C878C1FAD852070D
:1001D00024BF30C830C144BF04680C6070470000C1
:1001E0000023002400250026103A28BF78C1FBD840
:1001F000520728BF30C148BF0B6070471FB503F0DE
:100200004EFC1FBD10B510BD00F0CFF81146FFF732
:10021000F5FF02F0C3FB00F0EDF803B4FFF7F2FFC7
:1002200003BC00F0F5F80000094880470948004782
:10023000FEE7FEE7FEE7FEE7FEE7FEE7FEE7FEE796
:10024000FEE7FEE704480549054A064B70470000F3
:10025000411F000889010008F0080020F00E00206E
:10026000F00A0020F00A0020032A40F2308010F04B
:10027000030C00F0158011F8013BBCF1020F624441
:1002800098BF11F801CB00F8013B38BF11F8013BD2
:10029000A2F1040298BF00F801CB38BF00F8013B7F
:1002A00011F0030300F04F80083AC0F0088051F8C5
:1002B000043B083A51F804CBA0E80810F5E7121DFA
:1002C0005CBF51F8043B40F8043BAFF30080D20719
:1002D00024BF11F8013B11F801CB48BF11F8012BE5
:1002E00024BF00F8013B00F801CB48BF00F8012B08
:1002F00070474FF0000200B51346944696462039E9
:1003000022BFA0E80C50A0E80C50B1F12001BFF4CE
:10031000F7AF090728BFA0E80C5048BF0CC05DF834
:1003200004EB890028BF40F8042B08BF704748BF82
:1003300020F8022B11F0804F18BF00F8012B7047F6
:1003400070477047704710B5203AC0F00B80B1E895
:100350001850203AA0E81850B1E81850A0E81850FA
:10036000BFF4F5AF5FEA027C24BFB1E81850A0E803
:10037000185044BF18C918C0BDE810405FEA827C1D
:1003800024BF51F8043B40F8043B08BF7047D20734
:1003900028BF31F8023B48BF11F8012B28BF20F8D5
:1003A000023B48BF00F8012B7047754600F02CF85F
:1003B000AE4605006946534620F00700854618B052
:1003C00020B5FFF73FFFBDE820404FF000064FF09B
:1003D00000074FF000084FF0000B21F00701AC467A
:1003E000ACE8C009ACE8C009ACE8C009ACE8C00999
:1003F0008D46704710B50446AFF300802046BDE837
:100400001040FFF70ABF0000004870478C0800202A
:1004100001491820ABBEFEE726000200704700002D
:100420004178827841EA022109B201EE101AC178BE
:10043000027941EA022109B200EE101A417982796B
:1004400041EA022109B200EE901AF8EEC11A9FEDBE
:10045000182AC1EE822ADFED171A62EEA11AFDEE0C
:10046000E11A11EE901A09B2134A1180F8EEC01A7F
:10047000DFED0F2A81EEA22ADFED0E1A62EE211ABD
:10048000FDEEE11A11EE901A09B25180F8EEE01A71
:10049000DFED072A81EEA22ADFED061A62EE211AAD
:1004A000FDEEE11A11EE901A09B29180704700003A
:1004B00000401C46000080446C0000202DE9F04103
:1004C0002DED048B7048B0F9000000EE100AB8EE74
:1004D000C00ADFED6E0A20EE200ABDEEC00A6C48AD
:1004E00080ED000A6848B0F90200404200EE100AB0
:1004F000B8EEC00ADFED650A20EE200ABDEEC00AA4
:10050000644880ED000A6048B0F90400404200EE03
:10051000100AB8EEC00ADFED600A20EE200ABDEE38
:10052000C00A5E4880ED000A594800884042594997
:100530000988084459490988084400B25849088084
:100540005348008853490988084454490988084495
:1005500000B2544908804E4800884E490988401A24
:100560004E490988084400B24F490880484800882D
:10057000404248490988401A48490988084400B25D
:100580004A4908800846B0F9000002F0A5FF41EC96
:10059000180B4749B1F9020002F09EFF41EC190B1C
:1005A000B0EE481AF0EE681AB0EE490AF0EE690AA9
:1005B000404801F05BF9BDEEC00A10EE100A04B22B
:1005C0003948B0F9000002F087FF41EC180B3A49B6
:1005D000B1F9020002F080FF41EC190BB0EE481AAD
:1005E000F0EE681AB0EE490AF0EE690A334801F0FD
:1005F0003DF9BDEEC00A10EE100A05B22948B0F967
:10060000000002F069FF41EC180B2D49B1F902001E
:1006100002F062FF41EC190BB0EE481AF0EE681AD6
:10062000B0EE490AF0EE690A264801F01FF9BDEE66
:10063000C00A10EE100A06B21948B0F9000002F024
:100640004BFF41EC180B2049B1F9020002F044FFC6
:1006500041EC190BB0EE481AF0EE681AB0EE490AF8
:10066000F0EE690A194801F001F9BDEEC00A10EE7A
:10067000100A07B223462A463146384601F072FB7B
:10068000BDEC048BBDE8F0816C00002046B6F33D64
:100690007800002074000020A69B443D7C000020D0
:1006A0008400002086000020880000208A000020AE
:1006B0002C000020F804002024000020A0040020CA
:1006C0001C0000204804002014000020F00300203B
:1006D00000BFFEE7F0B585B00221FE4800F0FAFB4E
:1006E00000287DD00221FB4800F01CFBFA49F948A4
:1006F00000F0FCFA6A460021F64800F00EFDF748CB
:100700000068B0F57A7F04DAF4480068401CF349C9
:100710000860F2480068B0F57A7F03DB4FF47A7026
:10072000EE4908600098A0F2012030B101287DD088
:1007300002287CD003287BD11EE2E84C2468B4F563
:100740007A7F0DDA9DF80C409DF80B5044EA0524A1
:1007500024B2E34D2C802C462488E24D2C805FE0AF
:10076000DF4C2488E04D2C809DF80C409DF80B5008
:1007700044EA052424B2DA4D2C802C46B4F900401A
:10078000D94DB5F90050641BB4F5805F10DDD74C2E
:100790002488641E24B2D54D2C80D14C2488D24D9F
:1007A0002D88641BA4F5005424B2CD4DEC8024E0C8
:1007B000CB4CB4F90040CC4DB5F90050641B14F596
:1007C000805F12DAC94C2488641C24B2C74D2C8087
:1007D000C34C2488C44D2D88641B04F5005400E0EC
:1007E0006DE224B2BE4DEC8007E0BD4C2488BE4DC6
:1007F0002D88641B24B2BA4DEC80B94CB4F900507A
:10080000BA4CB4F9004005EB4434B64DB5F900508C
:10081000641B00EE104AB8EEC00AB54C84ED000A25
:100820000020AF4CB4F90650B24C02E02DE0CEE00F
:1008300044E226682468641CAE4F3C60AE4C44F829
:1008400026503C462468052C02DB00243D462C60E3
:10085000002405E0A84D55F824502844651CECB24E
:10086000052CF7DB052490FBF4F400EE104AB8EEFB
:10087000C00ADFEDA20A20EE200ABDEEC00A10EE8B
:10088000104A24B2964D6C8018E2944C2468B4F55A
:100890007A7F0DDA9DF80C409DF80B5044EA052450
:1008A00024B2974D2C802C462488964D2C805DE0F8
:1008B000934C2488944D2C809DF80C409DF80B504F
:1008C00044EA052424B28E4D2C802C46B4F9004015
:1008D0008D4DB5F90050641BB4F5805F10DD8B4C75
:1008E0002488641E24B2894D2C80854C2488864D32
:1008F0002D88641BA4F5005424B2814DEC8022E0C5
:100900007F4CB4F90040804DB5F90050641B14F5DC
:10091000805F10DA7D4C2488641C24B27B4D2C80CF
:10092000774C2488784D2D88641B04F5005424B23C
:10093000734DEC8007E0724C2488734D2D88641B46
:1009400024B26F4DEC806E4CB4F900506F4CB4F98A
:10095000004005EB44346B4DB5F90050641B00EECC
:10096000104AB8EEC00A6A4C84ED000A0021644CBB
:10097000B4F90650674C26682468641C654F3C60D7
:10098000654C44F826503C462468052C02DB0024C4
:100990003D462C60002405E05F4D55F82450294465
:1009A000651CECB2052CF7DB052491FBF4F400EE9A
:1009B000104AB8EEC00ADFED510A20EE200ABDEE63
:1009C000C00A10EE104A24B24D4D6C8076E1434CC3
:1009D0002468B4F57A7F0DDA9DF80C409DF80B5031
:1009E00044EA052424B24D4D2C802C4624884C4DDD
:1009F0002C805DE0494C24884A4D2C809DF80C40A9
:100A00009DF80B5044EA052424B2444D2C802C461A
:100A1000B4F90040434DB5F90050641BB4F5805F54
:100A200010DD414C2488641E24B23F4D2C803B4C89
:100A300024883C4D2D88641BA4F5005424B2374D06
:100A4000EC8022E0354CB4F90040364DB5F9005049
:100A5000641B14F5805F10DA334C2488641C24B2C4
:100A6000314D2C802D4C24882E4D2D88641B04F58F
:100A7000005424B2294DEC8007E0284C2488294DED
:100A80002D88641B24B2254DEC80244CB4F9005011
:100A9000254CB4F9004005EB4434214DB5F9005024
:100AA000641B00EE104AB8EEC00A204C84ED000A28
:100AB00000221A4CB4F906501D4C26682468641CA8
:100AC0001B4F3C601B4C44F826503C462468052CC8
:100AD00035DB31E00064004003000012000000201C
:100AE00014000020340000203C00002044000020BE
:100AF0004C000020040000209C020020355EEA40EB
:100B00001C000020360000203E000020460000208F
:100B10005000002008000020B00200202400002027
:100B20003800002040000020480000205400002031
:100B30000C000020C402002000243D462C6000244C
:100B400005E0604D55F824502A44651CECB2052C94
:100B5000F7DB052492FBF4F400EE104AB8EEC00A6D
:100B60005FED1A0A20EE200ABDEEC00A10EE104A10
:100B700024B2554D6C80A1E0544C2468B4F57A7FC2
:100B80000DDA9DF80C409DF80B5044EA052424B280
:100B90004F4D2C802C4624884E4D2C805DE04C4CD3
:100BA00024884D4D2C809DF80C409DF80B5044EA54
:100BB000052424B2464D2C802C46B4F90040464D05
:100BC000B5F90050641BB4F5805F10DD434C2488F8
:100BD000641E24B2414D2C803D4C24883E4D2D880E
:100BE000641BA4F5005424B2394DEC8022E0384C4B
:100BF000B4F90040384DB5F90050641B14F5805F1E
:100C000010DA364C2488641C24B2344D2C80304CCD
:100C10002488314D2D88641B04F5005424B22C4DDA
:100C2000EC8007E02A4C24882B4D2D88641B24B2CD
:100C3000274DEC80264CB4F90050284CB4F9004004
:100C400005EB4434234DB5F90050641B00EE104A07
:100C5000B8EEC00A224C84ED000A00231C4CB4F903
:100C60000650204C26682468641C1E4F3C601E4CB5
:100C700044F826503C462468052C02DB00243D46FF
:100C80002C60002405E0184D55F824502B44651CB9
:100C9000ECB2052CF7DB052493FBF4F400EE104ACC
:100CA000B8EEC00A5FED6B0A20EE200ABDEEC00A66
:100CB00010EE104A24B2064D6C8000BF00BF05B094
:100CC000F0BD0000C402002024000020000000202D
:100CD0002C0000203A000020420000204A000020A2
:100CE0005800002010000020D802002000220C4BE9
:100CF000994202D10023836111E0C1F3130201F094
:100D000000730BB1C2600AE001F080630BB10261B5
:100D100005E001F000630BB1826000E042607047C3
:100D20007000F030B1F5007F3AD00FDC202928D0D8
:100D300006DC01291CD004291DD0082940D11DE062
:100D4000402921D0B1F5807F3AD126E0B1F5004F9E
:100D500031D006DCB1F5806F25D0B1F5006F2FD111
:100D600024E0B1F5803F12D0B1F5003F28D111E069
:100D7000154A826025E00822C26022E01022C2608B
:100D80001FE0082202611CE01022026119E0082223
:100D9000426016E01022426013E00422426010E03C
:100DA000042242600DE0042242600AE000228261D7
:100DB0000422426005E0002282610422426000E0D9
:100DC00000BF00BF704700000101010010B5002105
:100DD000837A012202FA03F13D4A126842F00102CD
:100DE0003B4B1A603A4A1C3212688A43384B1C3318
:100DF0001A60027BCAB9364A0C3212688A43344BF5
:100E00000C331A604288C38842EA0343304A4032B6
:100E1000847A42F834300288838842EA03432C4AB9
:100E20004032847A02EBC4025360027B012A19D15A
:100E3000274A0C3212680A43254B0C331A60428849
:100E4000038842EA0343224A4032847A42F834302B
:100E5000C288838842EA03431D4A4032847A02EB07
:100E6000C4025360C27A3AB9194A121D12688A4301
:100E7000174B1B1D1A6006E0154A121D12680A4323
:100E8000134B1B1D1A60028932B9114A14321268C1
:100E90008A430F4B14331A600289012A06D10C4A87
:100EA000143212680A430A4B14331A60427B012A37
:100EB00006D1074A1C3212680A43054B1C331A60DC
:100EC000034A126822F00102014B1A6010BD0000B3
:100ED0000066004070B504460D4600266069284053
:100EE000002871D0B5F5807F5CD010DC082D35D09E
:100EF00006DC012D20D0022D24D0042D72D127E054
:100F0000102D31D0202D35D0402D6BD138E0B5F5E6
:100F1000004F60D009DCB5F5007F49D0B5F5806F92
:100F20004CD0B5F5006F5DD14FE0B5F5803F2DD0C9
:100F3000B5F5003F56D12FE0A0682D4900F076FAB4
:100F4000064651E0E068032100F070FA06464BE0E7
:100F5000E068082100F06AFA064645E0E0681021E2
:100F600000F064FA06463FE02069032100F05EFAD3
:100F7000064639E02069082100F058FA064633E0B9
:100F80002069102100F052FA06462DE06068082121
:100F900000F04CFA064627E06068102100F046FA9F
:100FA000064621E0A069012100F040FA06461BE058
:100FB000A069022100F03AFA064615E0A069042172
:100FC00000F034FA06460FE00FE0A069702100F04F
:100FD0002DFA064608E06068042100F027FA06466C
:100FE00002E0FFE7002600BF00E00026304670BDAB
:100FF000010101001AB143690B43436102E04369F7
:101000008B434361704730B50246002000231468CB
:1010100024F002041460146844F00104146000E039
:101020005B1C546804F001041CB94FF6FF74A34222
:10103000F6D1546804F001040CB900206CE08C79FE
:10104000012C04D1146844F08004146003E0146897
:1010500024F080041460CC79012C04D1146844F08D
:101060004004146003E0146824F0400414600C7A17
:10107000012C04D1146844F02004146003E01468C7
:1010800024F0200414604C7A012C04D1146844F03C
:101090001004146003E0146824F0100414608C7AC7
:1010A000012C04D1146844F00804146003E01468AF
:1010B00024F008041460CC7A012C04D1146844F0A4
:1010C0000404146003E0146824F0040414608C78B1
:1010D000A407CD7844EA05640D7944EA05444D79C6
:1010E00044EA05540D886D1E2C43D461146824F025
:1010F00001041460002300E05B1C546804F0010448
:101100001CB14FF6FF74A342F6D1546804F00104F9
:101110000CB1002000E0012030BD10B500F5D873FF
:1011200003EB01131B6803F004031372137A53B922
:1011300000F5D87303EB01131B6840F2FF7404EA57
:101140005353136009E000F5D87303EB01131B68D8
:101150006FF0604404EAD303536000F5D87303EBE7
:1011600001131B6803F00203537200F5D87303EBFD
:1011700001135B6803F00F03937200F5D87303EB60
:1011800001135B681B0AD37400F5D87303EB0113DA
:101190009B68D37200F5D87303EB01139B681C0A9C
:1011A000147300F5D87303EB01139B681C0C547384
:1011B00000F5D87303EB01139B681B0E937300F5C6
:1011C000D87303EB0113DB68D37300F5D87303EB1B
:1011D0000113DB681C0A147400F5D87303EB0113C8
:1011E000DB681C0C547400F5D87303EB0113DB6847
:1011F0001B0E937421B9C36843F02003C36003E05E
:10120000036943F02003036110BD10B502460020BE
:10121000936803F08063B3F1806F00D110E09368AE
:1012200003F00063B3F1006F01D1012008E093687F
:1012300003F08053B3F1805F01D1022000E004206D
:10124000042874D002F5C07303EB00131B6803F08D
:10125000010402F5C07303EB00131C600B7A7BB929
:101260004B7A0C8843EA445302F5C07404EB001433
:101270002468234302F5C07404EB0014236010E0DB
:101280000B7A4C6843EAC4034C7A234302F5C074DA
:1012900004EB00142468234302F5C07404EB00142B
:1012A00023608B7A03F00F038B7202F5C07303EB9C
:1012B00000135B6823F00F0402F5C07303EB001307
:1012C0005C6002F5C07303EB00135B688C7A234308
:1012D00002F5C07404EB001463608B7B1C064B7B2F
:1012E00044EA03440B7B44EA0323CC7A234302F50C
:1012F000C07404EB0014A3608B7C1C064B7C44EA96
:1013000003440B7C44EA0323CC7B234302F5C074E3
:1013100004EB0014E36002F5C07303EB00131B68D9
:1013200043F0010402F5C07303EB00131C6010BD11
:1013300000B58BB00121480600F02AFC01210820ED
:1013400000F016FC0320069002208DF81C000020FF
:101350008DF81E0003208DF81D0001208DF81F0060
:1013600006A9304800F0A4F9092200212D4800F018
:10137000E7F9092201212B4800F0E2F900208DF85D
:1013800026008DF827008DF8280001208DF829000F
:1013900000208DF82A0001208DF82B0000208DF808
:1013A00022008DF8230008208DF8240003208DF8FA
:1013B0002500ADF8200008A91B48FFF724FE0020F7
:1013C0008DF812008DF8130001208DF81400002014
:1013D000ADF80800ADF80A00ADF80C00ADF80E004D
:1013E000ADF8100001208DF8150002A8FFF7EEFC03
:1013F00014208DF8040000208DF805008DF80600FB
:1014000001208DF8070001A800F0F4F90122022163
:101410000548FFF7EFFD012211460348FFF7EAFDFB
:101420000BB000BD000C02400064004002460020EA
:1014300002EA01030BB1012000E000207047000028
:101440000246094B9A4201D2084801E0064810388A
:1014500001F000531BB1064B0B40C36002E0044B8C
:101460000B4083607047000010640240006002403F
:101470007D0F7D0F21B1026842F00102026003E09E
:10148000026822F00102026070470000016821F04A
:10149000010101600021016041608160C160016162
:1014A000212141614A49884204D13D21484A103AEC
:1014B00091608CE046491831884205D14FF474613F
:1014C000434A103A916082E041493031884205D167
:1014D0004FF474113E4A103A916078E03C4948312B
:1014E000884205D14FF07461394A103A91606EE03C
:1014F00037496031884204D13649354A103AD160C3
:1015000065E033497831884204D13349304A103A92
:10151000D1605CE02E499031884204D12F492C4A99
:10152000103AD16053E02A49A831884205D14FF0E2
:101530003D51274A103AD16049E02949884204D1F7
:101540003D21274A083A116041E025491831884277
:1015500005D14FF47461224A083A116037E02049FE
:101560003031884205D14FF474111D4A083A116098
:101570002DE01B494831884205D14FF07461184A6B
:10158000083A116023E016496031884204D11149BC
:10159000134A121F11601AE011497831884204D1B0
:1015A0000D490F4A121F116011E00D499031884218
:1015B00004D10A490A4A121F116008E00849A831FB
:1015C000884204D14FF03D51054A121F1160704707
:1015D000106002403D000020400F002000003D2030
:1015E0001064024021B1026842F48022026003E0EC
:1015F000026822F480220260704722B1036843F43B
:101600000023036003E0036823F400230360016107
:1016100070470146486880B27047014600200A685A
:1016200002F400220AB1012000E00020704700000F
:1016300010B500220268134B1A40CC680B68234394
:101640004C6923438C692343CC6923430C6A2343AD
:101650004C6A23438C6A23434C6B23438C6B234398
:101660001A430260426922F00702D1E90B34234396
:101670001A4342610B6943604B6883608B68C360A7
:1016800010BD00003F801CF04160704700210160E8
:1016900041608160C160016141618161C16101623C
:1016A00041628162C1620163416381637047704737
:1016B000F0B50A4600210023002400BF3DE00125CB
:1016C00005FA01F3156805EA03049C4234D1056864
:1016D0004F000326BE40B543056015794E00B54066
:1016E0000668354305601579012D02D01579022D64
:1016F00016D185684F000326BE40B54385605579F5
:101700004E00B540866835438560456801268E40A9
:10171000B5434560456896798E40B6B2354345601D
:10172000C5684F000326BE40B543C560D5794E005D
:10173000B540C6683543C560491C1029BFD3F0BD0C
:10174000F0B5002300244D07ED0E02FA05F3CE108C
:1017500000F1200555F826504E07F70E0F26BE4023
:10176000B543CF1000F1200646F82750CE1000F107
:10177000200555F8265045EA0304CE1000F1200557
:1017800045F82640F0BD018370474FF6FF710160B8
:101790000021017141718171C171704700BFFEE785
:1017A0001049D0F802200A60C2888A800A46D0F820
:1017B0000D30C2F80630B0F8111051818369D36042
:1017C000818B1182D0F82330C2F81230B0F8271084
:1017D000D182054AD0F82E301360D0F83210516013
:1017E00070470000740800208C00002000BFFEE756
:1017F0007047000070B5002100230F22C4781CB38D
:10180000174C246804F4E064C4F5E064C4F30721D1
:10181000C1F10404E3B20A4144789C40E1B2847807
:10182000144021430C07210E0E4C057861550478B5
:1018300004F01F050124AC4005786D11AD0005F1E1
:10184000E025C5F8004109E0047804F01F050124F3
:10185000AC40054D0678761145F8264070BD000075
:101860000CED00E000E400E080E100E010B52DEDBB
:10187000068B0446B0EE408AF0EE608AB0EE419AE4
:10188000F0EE619A53EC182B51EC190B01F0ACFF00
:10189000C4E9060194ED002BB0EE420AF0EE620AB4
:1018A00094ED062BB0EE421AF0EE621A53EC102BB8
:1018B00051EC110B01F064FEC4E90A0194ED022B16
:1018C000B0EE420AF0EE620A94ED062BB0EE421A38
:1018D000F0EE621A53EC102B51EC110B01F050FE9C
:1018E00041EC1A0B94ED0C1BB0EE410AF0EE610ACC
:1018F00053EC102B01F0E4FBC4E90C0194ED102B28
:10190000B0EE420AF0EE620A94ED0C2BB0EE421AF1
:10191000F0EE621A53EC102B51EC110B01F02EFF7C
:1019200004D894ED100B84ED0C0B22E094ED101B09
:10193000B0EE410AF0EE610A51EC100B01F082FBAF
:1019400041EC1A0B94ED0C1BB0EE410AF0EE610A6B
:1019500053EC102B01F012FF0BD894ED101BB0EEDE
:10196000410AF0EE610A51EC100B01F06BFBC4E987
:101970000C0194ED082BB0EE420AF0EE620A94EDF1
:10198000062BB0EE421AF0EE621A53EC102B51EC1B
:10199000110B01F029FF41EC1A0B94ED041BB0EE82
:1019A000410AF0EE610A53EC102B01F0E9FDC4E9A5
:1019B0000E0194ED060B84ED080B94ED0C2BB0EEAC
:1019C000420AF0EE620A94ED0A2BB0EE421AF0EEF3
:1019D000621A53EC102B51EC110B01F071FB41EC2E
:1019E0001A0B94ED0E1BB0EE410AF0EE610A53ECB7
:1019F000102B01F065FBC4E9140194ED122BB0EE3D
:101A0000420AF0EE620A94ED142BB0EE421AF0EEA8
:101A1000621A53EC102B51EC110B01F0AFFE04D8FD
:101A200094ED120B84ED140B22E094ED121BB0EE3A
:101A3000410AF0EE610A51EC100B01F003FB41EC9E
:101A40001A0B94ED141BB0EE410AF0EE610A53EC50
:101A5000102B01F093FE0BD894ED121BB0EE410A4F
:101A6000F0EE610A51EC100B01F0ECFAC4E914013C
:101A700094ED141BB0EE410AF0EE610A51EC100B2C
:101A800001F0ECFA00EE100ABDEC068B10BD10B5AB
:101A9000044658212046FEF72CFC10BD10B5204806
:101AA000FFF7F5FF9FED1F4B9FED203B9FED212B97
:101AB0009FED221B9FED230B194800F04DF82348A2
:101AC000FFF7E5FF9FED174B9FED183B9FED192B9F
:101AD0009FED1A1B9FED1B0B1C4800F03DF81C48A6
:101AE000FFF7D5FF9FED0F4B9FED103B9FED112BA7
:101AF0009FED121B9FED130B154800F02DF81548B4
:101B0000FFF7C5FF9FED074B9FED083B9FED092BAE
:101B10009FED0A1B9FED0B0B0E4800F01DF810BD4A
:101B2000F0030020000000000088C3400000000017
:101B300000409F4000000000000024400000000022
:101B40000000E03F0000000000003C40480400208E
:101B5000A0040020F804002080ED000B80ED021BA3
:101B600080ED042B80ED103B80ED124B70477047E9
:101B700029B1064A12680243044B1A6004E0034A82
:101B800012688243014B1A607047000030380240EF
:101B900029B1064A12680243044B1A6004E0034A62
:101BA00012688243014B1A607047000040380240BF
:101BB00029B1064A12680243044B1A6004E0034A42
:101BC00012688243014B1A607047000020380240BF
:101BD00029B1064A12680243044B1A6004E0034A22
:101BE00012688243014B1A6070470000443802407B
:101BF00029B1064A12680243044B1A6004E0034A02
:101C000012688243014B1A6070470000243802407A
:101C1000F0B5002100220024022500260223324FC5
:101C20003F6807F00C0121B1042905D0082937D1FC
:101C300005E02E4F076036E02D4F076033E02A4F56
:101C40003F1F3F68C7F38056274F3F1F3F6807F08D
:101C50003F036EB1264FB7FBF3F7DFF88CC0ACF152
:101C6000040CDCF800C0CCF3881C07FB0CF40CE07F
:101C70001E4FB7FBF3F7DFF870C0ACF1040CDCF8D3
:101C800000C0CCF3881C07FB0CF4174F3F1F3F68C4
:101C9000C7F301477F1C7D00B4FBF5F7076002E046
:101CA000124F076000BF00BF0F4F3F6807F0F00101
:101CB0000909104F7A5C0768D74047600A4F3F68B0
:101CC00007F4E051890A0B4F7A5C4768D740876078
:101CD000054F3F6807F46041490B064F7A5C47683F
:101CE000D740C760F0BD0000083802400024F4006F
:101CF000001BB7005C00002000B9704701784278F3
:101D000041EA0221C1F30A01144A11804178C91045
:101D1000827841EA4211C1F30A01104A5180817868
:101D20008911C27841EA8201027941EA8221C1F334
:101D30000A010A4A918001794910427941EAC211A7
:101D4000C1F30A01054AD18041790911890811813D
:101D50004179C1F30111518100BFCEE7680800202D
:101D600070470000F0B585B004460D4616461F4684
:101D70004FF40070009000208DF809008DF80800E5
:101D800008208DF80A00200A8DF80B00E1B28DF8CA
:101D90000C10290A8DF80D10E9B28DF80E10310AD9
:101DA0008DF80F10F1B28DF81010390A8DF811105E
:101DB000F9B28DF8121069460248FFF726FA05B00D
:101DC000F0BD0000006400400CB5002001900090C0
:101DD0004148006840F480303F49086000BF3E48F9
:101DE000006800F4003000900198401C01900098B9
:101DF00018B90198B0F5A04FF1D13748006800F448
:101E0000003010B10120009001E000200090009807
:101E1000012860D130484030006840F080502E49A1
:101E2000403108602D48006840F440402B4908606C
:101E300029480830006828490831086008460068C9
:101E400040F4004008600846006840F4A050086074
:101E50002348091F0860081F006840F08070091FB0
:101E6000086000BF1C48006800F000700028F9D02E
:101E70001A48006840F480301849086000BF1748CD
:101E8000406800F480300028F9D01448006840F41D
:101E900000301249086000BF1048406800F400306C
:101EA0000028F9D040F205700E4908600A48083051
:101EB000006820F0030008490831086008460068FF
:101EC00040F00200086000BF03480830006800F0DE
:101ED0000C000828F8D10CBD00380240007000400A
:101EE0000C544007003C024010B500200B4908602C
:101EF0000B4908600B4908600B4908600B490880D2
:101F00000B4908800B4908800B49088000231A46BA
:101F100019461846FFF726FF10BD00007400002088
:101F2000780000207C000020800000208400002039
:101F300086000020880000208A00002070470000F2
:101F400010B51548006840F4700013490860134844
:101F5000006840F001001149086000200F49083175
:101F600008600E4800680E4908400C4908600D489A
:101F7000091D0860081F006820F48020091F086000
:101F8000002006490C310860FFF71EFF4FF000608B
:101F900001498039086010BD88ED00E0003802403A
:101FA000FFFFF6FE1030002410B50121880700F075
:101FB00034F828B10121880700F020F800F01AFB5E
:101FC00010BD000010B50121054800F026F828B129
:101FD0000121034800F012F800F036FB10BD0000AC
:101FE0000008004021B1028842F08002028004E033
:101FF00002884FF67F731A4002807047CA430282FC
:10200000704721B1028842F00102028004E0028898
:102010004FF6FE731A400280704730B5024600202A
:1020200000230024158A05EA0103958905EA0104C5
:1020300013B10CB1012000E0002030BD1AB183893A
:102040000B43838102E083898B43838170470000C7
:1020500000220288184B98420ED0184B98420BD0A1
:10206000B0F1804F08D0164B984205D0154B9842DE
:1020700002D0154B984204D14FF68F731A404B880B
:102080001A43124B984207D0114B984204D04FF696
:10209000FF431A400B891A4302804B68C3620B88C6
:1020A0000385054B984202D0044B984201D18B7AAC
:1020B0000386012383827047000001400004014031
:1020C0000004004000080040000C004000100040E8
:1020D000001400401FB501210846FFF759FD5320A9
:1020E000ADF804000020ADF806004FF47A700290BD
:1020F0000020ADF80C0001A94FF08040FFF7A8FFC9
:102100001C208DF8000001208DF8010000208DF8C2
:10211000020001208DF803006846FFF76BFB0121E8
:102120008807FFF75FFF012211469007FFF786FF40
:1021300001218807FFF765FF01218807FFF75EFF90
:102140001FBD00001FB501210420FFF721FD42F251
:10215000CF00ADF804000020ADF806004FF47A700F
:1021600002900020ADF80C0001A91148FFF770FFA4
:102170001E208DF8000001208DF801008DF802006E
:102180008DF803006846FFF735FB01210848FFF78B
:1021900029FF012211460648FFF750FF012104489C
:1021A000FFF72FFF01210248FFF728FF1FBD0000A6
:1021B0000008004010B5002440F22441234800F0FC
:1021C0004EF9002841D021480088204880882048C6
:1021D000FFF723FAE0B900211D48FFF74BF91C482F
:1021E000FFF717FAC0F1800480201949091D086023
:1021F000081F006840F40020091F0860122C02D15B
:102200001448FFF779FD01211148FFF733F91CE06D
:1022100000210F48FFF72EF90D48FFF7FAF9C0F13A
:10222000800480200A49091D0860081F006820F406
:102230000020091F0860122C03D106488030FFF7E8
:102240005BFD01210248FFF715F910BD00100140A8
:10225000406402409C00002010B5002440F224415C
:10226000154800F0FCF830B3134800881248001DF0
:10227000008800211148FFF7FDF811490F48FFF7CA
:10228000DFF80E48FFF7C5F9C0F18004082C0AD129
:102290000C4800787F2806D10A48C0797E2802D1F0
:1022A0000848FEF7BDF880210448FFF7EDF9012149
:1022B0000248FFF7DFF810BD00440040886002408C
:1022C000000800209C01002010B5002440F22441A9
:1022D000114800F0C4F8F0B10F4800880E48001D06
:1022E000008800210D48FFF7C5F80D490B48FFF79E
:1022F000A7F80A48FFF78DF9C0F18004372C02D106
:102300000848FFF74DFA80210448FFF7BDF9012185
:102310000248FFF7AFF810BD0014014028640240E6
:1023200000080020EC02002021B1828942F4005212
:10233000828104E082894DF6FF731A4082817047E2
:102340001AB1838A0B43838202E0838A8B438382A0
:102350007047000010B504463248844208D101217C
:102360001020FFF745FC00211020FFF741FC57E04B
:102370002D48844209D101214804FFF719FC0021AE
:102380004FF40030FFF714FC4AE02848844209D19A
:1023900001218804FFF70CFC00214FF48020FFF797
:1023A00007FC3DE02248844209D10121C804FFF71F
:1023B000FFFB00214FF40020FFF7FAFB30E01D483F
:1023C000844209D101210805FFF7F2FB00214FF4F7
:1023D0008010FFF7EDFB23E01748844208D101216C
:1023E0002020FFF705FC00212020FFF701FC17E06B
:1023F0001248844209D101218807FFF7D9FB002147
:102400004FF08040FFF7D4FB0AE00D48844207D12B
:1024100001214005FFF7CCFB00216005FFF7C8FB59
:1024200010BD000000100140004400400048004082
:10243000004C004000500040001401400078004073
:10244000007C004002460020B1F5007F00D100BFB3
:1024500013880B400BB1012000E00020704770B5DD
:102460000246002400230025002040F66A16B142EF
:1024700000D100BFC1F3421501F01F03012606FA87
:1024800003F3012D02D19689334006E0022D02D1DB
:10249000168A334001E0968A33400C12012606FA70
:1024A00004F41688344013B10CB1012000E0002080
:1024B00070BDF0B50346002400260025002040F63C
:1024C0006A17B94200D100BF1846C1F3421401F0A7
:1024D0001F06012707FA06F5012C01D10C3004E094
:1024E000022C01D1103000E014301AB107682F43DC
:1024F000076002E00768AF430760F0BD2DE9FF47C2
:1025000005460E460024A14600BFA046B08900B192
:1025100000BF2C8A24F44054F08804432C82AC89F8
:1025200041F20C608443B0883189084371890843C3
:102530000443AC81AC8A24F44074B0890443AC8277
:102540006846FFF765FB2048854202D01F48854258
:1025500002D1DDF80C9001E0DDF80890A88900F4C4
:10256000004040B109EBC90000EB09103168490097
:10257000B0FBF1F707E009EBC90000EB0910316887
:102580008900B0FBF1F76420B7FBF0F004012009EB
:10259000642101FB1078A88900F4004040B132208A
:1025A00000EBC800B0FBF1F000F00700044308E0C6
:1025B000322000EB08106421B0FBF1F000F00F00B6
:1025C00004432C81BDE8FF87001001400014014046
:1025D000C1F30802828070474FF416510160002158
:1025E0008180C18001810C2141810021818170475E
:1025F00000BFFEE710B50C48408930B1012807D074
:10260000022808D0032809D100BFFFF76DFC08E0BD
:1026100000F0E8F905E0FDF751FF02E0FFF764FC88
:1026200000BF00BF10BD00006808002010B50021E9
:1026300007E042F63C0200BF131EA2F10102FBD1EB
:10264000491C8142F5D310BD10B52DED108B9E486D
:1026500090ED000AB1EE400A9C48D0ED000A30EE41
:10266000200A9B48D0ED000A30EE200A9948D0EDB0
:10267000000A30EE600A10EE101A084601F09EF9CA
:1026800041EC1E0B9FED940B53EC102B00F078FFE8
:1026900041EC1D0B9FED920B53EC102B00F0C4FD91
:1026A00041EC1C0B9FED900B53EC102B00F068FFDE
:1026B00041EC1B0B9FED8E0B53EC102B00F0B4FD87
:1026C00041EC1A0B9FED8C0B53EC102B00F058FFD4
:1026D00041EC190B00F0C2FC08EE100A7A4890EDAC
:1026E000000AB1EE400A7948D0ED000A30EE200A27
:1026F0007748D0ED000A30EE600A7648D0ED000A47
:1027000030EE200A10EE101A084601F057F941EC9D
:102710001E0B9FED710B53EC102B00F031FF41ECC1
:102720001D0B9FED6F0B53EC102B00F07DFD41EC6A
:102730001C0B9FED6D0B53EC102B00F021FF41ECB7
:102740001B0B9FED6B0B53EC102B00F06DFD41EC60
:102750001A0B9FED690B53EC102B00F011FF41ECAD
:10276000190B00F07BFC08EE900A6549B1F90210E4
:102770004942644AB2F902201144634AB2F9022084
:102780001144624AB2F90220881A00F0A5FE41EC19
:102790001E0B9FED5F0B53EC102B00F0F1FE41EC94
:1027A0001D0B9FED4F0B53EC102B00F03DFD41EC4A
:1027B0001C0B9FED4D0B53EC102B00F0E1FE41EC98
:1027C0001B0B9FED4B0B53EC102B00F02DFD41EC40
:1027D0001A0B9FED510B53EC102B00F0D1FE41EC86
:1027E000190B00F03BFC0FEE100A4549B1F902103D
:1027F0004942444AB2F902201144434AB2F9022044
:10280000891A424AB2F90220881800F065FE41ECAC
:102810001E0B9FED3F0B53EC102B00F0B1FE41EC73
:102820001D0B9FED2F0B53EC102B00F0FDFC41EC2A
:102830001C0B9FED2D0B53EC102B00F0A1FE41EC77
:102840001B0B9FED2B0B53EC102B00F0EDFC41EC20
:102850001A0B9FED310B53EC102B00F091FE41EC65
:10286000190B00F0FBFB0FEE900A9FED2D0A28EEEE
:10287000000ABDEEC00A10EE100A00B22949088015
:102880009FED270A28EE800ABDEEC00A10EE100A5E
:1028900000B248809FED240A2FEE000ABDEEC00A68
:1028A00010EE100A00B288809FED1F0A2FEE800AFA
:1028B000BDEEC00A10EE100A00B2C88000F0B0F9F8
:1028C000BDEC108B10BD00004C0000205400002017
:1028D00050000020580000202D431CEBE2361A3F28
:1028E00000000000000010408DD13AAA9AA0F63FE7
:1028F0000000000000000040E7FBA9F1D24DEA3FD4
:1029000014000020240000201C0000202C000020C7
:102910007B14AE47E17A843F333333333333F33FB1
:102920000000C8429400002000401C461CB5012154
:102930003020FFF71DF98020009001208DF8040061
:1029400000208DF8060003208DF8050000208DF88A
:10295000070069460F48FEF7ABFE4FF48040009039
:1029600001208DF8040000208DF8060003208DF86A
:10297000050000208DF8070069460748FEF798FE1D
:102980004FF480410448FEF7FEFE80210148FEF727
:10299000FAFE1CBD0010024000140240FFF7D0FAFE
:1029A000FFF7C4FFFEF7C4FC4FF47A70FFF73EFE5A
:1029B0009FED090A00F06CF99FED080A00F00CFA8F
:1029C0009FED070A00F0A4FAFFF768F8FFF782FB13
:1029D000FFF7B8FB00BFFEE70050C3470000E14728
:1029E000000016462DE9F0412DED048B7948008852
:1029F000A0F5806000EE100AB8EEC00ADFED760A9E
:102A000020EE200ABDEEC00A744880ED000A71482D
:102A10004088A0F5806000EE100AB8EEC00ADFED35
:102A20006E0A20EE200ABDEEC00A6D4880ED000A55
:102A300068488088A0F5806000EE100AB8EEC00AF1
:102A4000DFED680A20EE200ABDEEC00A664880ED80
:102A5000000A6048C088A0F5806000EE100AB8EE59
:102A6000C00ADFED600A20EE200ABDEEC00A5F4812
:102A700080ED000A5A4800884042584909880844B5
:102A800059490988084400B25949088054480088C7
:102A900052490988084454490988084400B25549F4
:102AA00008804F4800884D490988401A4E490988D6
:102AB000084400B2504908804948008840424749CC
:102AC0000988401A48490988084400B24B490880DF
:102AD0000846B0F9000000F0FFFC41EC180B484933
:102AE000B1F9020000F0F8FC41EC190BB0EE481A05
:102AF000F0EE681AB0EE490AF0EE690A4148FEF7B6
:102B0000B5FEBDEEC00A10EE100A04B23A48B0F9A4
:102B1000000000F0E1FC41EC180B3B49B1F9020068
:102B200000F0DAFC41EC190BB0EE481AF0EE681A2E
:102B3000B0EE490AF0EE690A3448FEF797FEBDEEA2
:102B4000C00A10EE100A05B22A48B0F9000000F0E1
:102B5000C3FC41EC180B2E49B1F9020000F0BCFC9B
:102B600041EC190BB0EE481AF0EE681AB0EE490AC3
:102B7000F0EE690A2748FEF779FEBDEEC00A10EEB6
:102B8000100A06B21A48B0F9000000F0A5FC41ECAA
:102B9000180B2149B1F9020000F09EFC41EC190B21
:102BA000B0EE481AF0EE681AB0EE490AF0EE690A83
:102BB0001A48FEF75BFEBDEEC00A10EE100A07B21F
:102BC00023462A4631463846FFF7CCF8BDEC048B45
:102BD000BDE8F08168080020CDCC4C3E7400002098
:102BE000780000203D0A573E7C0000208000002035
:102BF0008400002086000020880000208A00002039
:102C00002C000020F804002024000020A004002054
:102C10001C0000204804002014000020F0030020C5
:102C200010B57F2015490870182215491348401C1B
:102C3000FDF71AFB1148193012490A680260496809
:102C40004160083010490A680260496841607E208E
:102C50000A4981F8290000240CE00848015D0B486E
:102C6000FFF7B6FC00BF40210848FFF7EBFB012847
:102C7000F9D1641C2A2CF0DB10BD00001C020020DE
:102C8000740800208C0000209400002000440040C4
:102C900000B52DED028B97B0B0EE408A01210220E5
:102CA000FEF766FF01211020FEF792FF0121880543
:102CB000FEF75EFF072211464348FEF741FD15A8C7
:102CC000FEF763FD8020159002208DF85800032048
:102CD0008DF8590001208DF85B0015A93A48FEF7E0
:102CE000E7FC3A48FFF736FB11A8FFF775FCBCEE8E
:102CF000C80A8DED110A0020ADF84800ADF84A0071
:102D0000ADF84C00ADF850000420ADF84E0011A90C
:102D10002E48FFF7F3FB012240212C48FFF710FB60
:102D20002B48FEF7B3FB01A8FEF7B0FC4FF00060A4
:102D300001902648001D0290264803900020049030
:102D400080200590002006904FF4806007900020BE
:102D5000089009904FF480700A9000020B900020B8
:102D60000C900D900E900F9001A91948FEF760FC91
:102D70000022184980311648FEF73FFC0121144813
:102D8000FEF730FC01211248FEF774FB25208DF878
:102D9000400002208DF8410000208DF84200012003
:102DA0008DF8430010A8FEF725FD012240F22441D2
:102DB0000648FFF77EFB01210448FFF7B5FA17B07C
:102DC000BDEC028B00BD0000000402400010014079
:102DD000406402409C00002000B52DED028B97B0AE
:102DE000B0EE408A01210820FEF7C2FE012148040E
:102DF000FEF7CEFE01214805FEF7BAFE07220521A7
:102E00003F48FEF79DFC072206213D48FEF798FC4F
:102E100015A8FEF7BAFC6020159002208DF8580026
:102E200003208DF8590001208DF85B0015A9344866
:102E3000FEF73EFC3348FFF78DFA11A8FFF7CCFBF5
:102E4000BCEEC80A8DED110A0020ADF84800ADF8BF
:102E50004A00ADF84C00ADF850000C20ADF84E0023
:102E600011A92848FFF74AFB012240212548FFF716
:102E700067FA2548FEF70AFB4FF0006001902148F1
:102E8000001D0290214803900020049080200590AE
:102E9000002006904FF48060079000200890099071
:102EA0004FF480700A904FF440300B9000200C904B
:102EB0000D900E900F9001A91348FEF7B9FB012168
:102EC0001148FEF7D7FA26208DF8400002208DF831
:102ED000410001208DF842008DF8430010A8FEF754
:102EE00089FC012240F224410648FFF7E2FA012161
:102EF0000448FFF719FA17B0BDEC028B00BD0000C3
:102F0000000C024000440040886002409C01002008
:102F100000B52DED028B97B0B0EE408A0121402024
:102F2000FEF726FE01212020FEF752FE0121880532
:102F3000FEF71EFE082209213E48FEF701FC08228A
:102F40000E213C48FEF7FCFB15A8FEF71EFC4FF4D3
:102F50008440159002208DF8580003208DF8590008
:102F600001208DF85B0015A93248FEF7A1FB32481D
:102F7000FFF7F0F911A8FFF72FFBBCEEC80A8DEDA3
:102F8000110A0020ADF84800ADF84A00ADF84C0039
:102F9000ADF850000C20ADF84E0011A92648FFF7FF
:102FA000ADFA012240212448FFF7CAF92348FEF771
:102FB0006DFA4FF0206001901F48001D02902048DC
:102FC00003900020049080200590002006904FF48C
:102FD000806007900020089009904FF480700A905C
:102FE00000200B900C900D900E900F9001A91348AB
:102FF000FEF71EFB01211148FEF73CFA47208DF831
:10300000400003208DF8410001208DF842008DF82A
:10301000430010A8FEF7EEFB012240F224410648CF
:10302000FFF747FA01210448FFF77EF917B0BDEC1E
:10303000028B00BD001802400014014028640240C9
:10304000EC02002081F00041704780F000407047A2
:1030500021F00041704720F00040704721F000420D
:10306000A2F16052B2F5801F01F0004328BFD2F1F7
:103070007F6C0BD95FEA001C43EAC20242EB50703E
:1030800018BF704728BF20F001007047B2F5801FBD
:10309000BCBF184670474FEA410C1CF5001F02D216
:1030A000084600F001BD70B500F014FB0000008977
:1030B000FFF7F6BF4FF00040A0F58000704700001A
:1030C00010B591EA030F48BF83F0004300F19483E9
:1030D000841A71EB030C05D2121943EB0C03001B8D
:1030E00061EB0C01DFF824E14FEA1154A4EB135C0F
:1030F0001EEA430F18BF9EEA445F73D023EA0E0313
:10310000DCF1200E21EA045143F4801332D322FA79
:103110000CFE10EB0E0023FA0CFE41EB0E01CCF17D
:10312000200E03FA0EFE10EB0E0051F10001B1F576
:10313000801FCCF1200E32D201EB045112FA0EF2B4
:10314000BDE8104058BF7047401C38BF5FEA4202DC
:1031500018BF7047002814BF20F0010041F10001A2
:103160004FEA410313F5001F38BF7047A1F1C0417A
:1031700000F0FEBA012A43EB0302ACF1200CDCF1B3
:103180001F0E32BF4FF0000E23FA0CF310EB0300BA
:1031900041EB0451B4EB115FD0D0A1EB045101F528
:1031A000801149085FEA300001EB04510ED350F161
:1031B000000038BF12FA0EFE08D1BDE81040C9E782
:1031C000401C38BF5FEA4202CAD1C3E7BDE81040E5
:1031D0004FEA410313F5001F38BF7047A1F1C0410A
:1031E00000F0C6BA9EEA445F08D011EA5E0FBDE85F
:1031F000104004BF01F0004100207047BDE81040BE
:1032000070B500F067FA00BF64FBBE3E0000E0FF4F
:10321000491058BFC1F140415B1058BFC3F1404352
:103220008B42EFF3008070472DE9C04130B4DFF8E6
:10323000A0C23CEA111418BF3CEA131400F0EC8061
:1032400081EA03051CEA111444EAD57418BF1CEA8C
:10325000131500F0C780A4EB05044FF0004545EAC4
:10326000C12145EAC32341EA505143EA525304F1D4
:103270007F74994204F500344FEAC0204FEAC2221D
:1032800008BF904200F09C804FEA13650FF2401691
:10329000765D4FEA134506FB05F7C7F1807706FB1D
:1032A00007F74FEAD737A7FB03687642C8F580389F
:1032B000A7FB06CE38BFA8F1010807FB08E64FF0D0
:1032C000000EA6FB028CE6FB03CEDCF1000CCEF177
:1032D000004E38BFAEF1010EA6FB0C584FF00007B0
:1032E0004FF00005E6FB0E87A1FB08C6A0FB07CE4A
:1032F00016EB0E0645F10005E1FB076515F1E04E02
:103300007EBFA4F580345FEA46066D4116F1800762
:1033100045F100054FEA17274FEA066647EA0567B9
:10332000A6F1DE46B6F1805F4FEA15251FD9384673
:1033300024F0010C05EBC471BCF1FE6F01EB0C1124
:1033400002D8F0BCBDE8008124425CBF01F5801EBC
:103350009EEAC47F02D4F0BCBDE80081244238D488
:10336000F0BCA1F1C041BDE8004100F001BA4FEA54
:10337000D22242EA43524FEAD323A7FB02864FEA06
:10338000D02040EA415007FB03661EEA0E0F4FEAC9
:10339000D12105FB026658BFA6EB0056B6EB0056DE
:1033A0004FEA520E4EEAC37E18EB0E0E56EB530E4A
:1033B000BDD518EB02085E417F1C55F10005B6E74C
:1033C0004FF480154FF000074FF000064FF0000853
:1033D000ADE7F0BC4FF0000001F1C04101F0004149
:1033E000BDE8008111EA0C1F0CEA131500D00CE0B7
:1033F00013EA0C1F00F025804FF00000F0BC81EABA
:10340000030101F00041BDE80081F0BCBDE80041CE
:1034100081EA030100F0ACB9F0BCBDE8004170B531
:1034200000F058F9097EFC3E00F007B881EA03017C
:103430004FF0000001F00041704781EA030100F005
:1034400097B9F0BCBDE800414FF00000214970473A
:10345000FFFDFBF9F7F5F4F2F0EEEDEBE9E8E6E459
:10346000E3E1E0DEDDDBDAD8D7D5D4D3D1D0CFCDE0
:10347000CCCBCAC8C7C6C5C4C2C1C0BFBEBDBCBB19
:10348000BAB9B8B7B6B5B4B3B2B1B0AFAEADACAB14
:10349000AAA9A8A8A7A6A5A4A3A3A2A1A09F9F9EEE
:1034A0009D9C9C9B9A9999989797969595949393A0
:1034B000929191908F8F8E8E8D8C8C8B8B8A898937
:1034C00088888787868585848483838282818180BA
:1034D0000000FF070000F87F10F0004248BF4042A4
:1034E000B0FA80F310FA03F10AD0C3F11D0303F51B
:1034F00080634FEA415002EB035202EBD121704747
:103500004FF000007047000051EA030C17D41CF57F
:10351000801F58BFBCF5801F00F10680994218BF7C
:10352000704708BF9042704707D711F5801F58BFFA
:1035300013F5801F19D499427047894270471CF5D2
:10354000801F08D5BCF5801FF7D58B4218BF704788
:1035500008BF824270474FF4001C1CEB410F38BF7C
:103560001CEB430F01D28B42704770B500F0B2F8EC
:10357000922449004FF000514FF08053FFF748BEAE
:10358000DFF848C170B51CEA111E1EBF1CEA1315F6
:103590009EEA0C0F95EA0C0F00F06F8081EA03049D
:1035A00023EA4C134EEAD47E21EA4C1141F48011F7
:1035B00043F48013AE44A1FB024CA0FB0365AEF1C3
:1035C0007F7E361955EB0C05A1FB034C4CF1000333
:1035D000A0FB021C16EB0C06654153F100030942E7
:1035E00018BF46F0010613F4007F0BD14FEA0331F8
:1035F0004FEA0530340341EA155140EA16506FF0A6
:1036000003020AE04FEAC3214FEAC520F40241EA6F
:10361000555140EA56506FF0020202EB2E4201EB88
:10362000025585EACE710AD05FEA440C18BF24F037
:10363000004450F1000041F1000120EAD47040F252
:10364000FE7C624500D270BDA84214BF4FF080449A
:103650004FF04044002E08BF0024BEF1806FA8BF89
:10366000A1F1C041BDE8704080F282804FF00000BF
:1036700001F1C04101F0004170479EEA0C0F0CEAD5
:10368000131518BF95EA0C0F06D04FF0000081EA21
:10369000030E0EF0004170BD00F01CF88900013EE1
:1036A00000F007B800F009B84FEA430C5FEA5C5C31
:1036B00008D081EA030100F05BB84FEA410C5FEAF1
:1036C0005C5CF6D14FF00000014970470000FF0735
:1036D0000000F87F0EF1020E2EF0030E5EF8046B70
:1036E000364205D4012A43EB030515F5001F12D815
:1036F000012841EB010C1CF5001F0CD80ED14FEA3C
:10370000D17C15F5001F0CEB4C0C0CF1020C08BF22
:103710004CEBD37C04E04FF0080C01E04FEAD37C83
:103720000CEB4C0526FA05F606F00706B6F1040C7C
:1037300006D20EEB860CBDE870404CF0010C6047E1
:10374000DFE80CF0090B02024FF000414FF00000DF
:10375000A1F5002170BD19461046012851EB010466
:1037600018BFD4F5001484BF002001F0004170BDE3
:103770000808A0F500114FEA3101704753EA010C27
:1037800017D41CF5801F58BFBCF5801F00F10680C0
:103790008B4218BF704708BF8242704707D713F5A6
:1037A000801F58BF11F5801F19D48B4270479B4270
:1037B00070471CF5801F08D5BCF5801FF7D59942CE
:1037C00018BF704708BF904270474FF4001C1CEBB5
:1037D000430F38BF1CEB410F01D2994270470FB421
:1037E0000CBC03BCFFF7C1BE10B591EA030F48BF84
:1037F00083F000433FF56CAC841A71EB030C07D2E5
:1038000012198CF0004C43EB0C03001B61EB0C0114
:10381000DFF8A4E14FEA1154A4EB135C1EEA430F56
:1038200018BF9EEA445F00F0B08023EA6E03524264
:1038300021EA0451C3EB6E0338BF5B1EDCF1200E9E
:1038400025D322FA0CFE10EB0E0043FA0CFE41EBDE
:103850000E01CCF1200E03FA0EFE10EB0E0051F11A
:103860000001CCF1200E29D412FA0EF201EB045122
:10387000BDE8104058BF7047401C1CBFB2F1004F5C
:10388000704700280CBF491C20F00100704712EB64
:10389000020E43EB030218BF4FF0010E4EEA420244
:1038A000ACF1200CDCF11E0E54D943FA0CFE10EBE7
:1038B0000E0051F1FF31CCF11E0ED5D50EF1010EE7
:1038C00012FA0EFE404141EB010101EB445C5FEA5C
:1038D0005C5C10D910EBDE7001EB045138BFBEF117
:1038E000004FBDE8104018BF704700280CBF491CAE
:1038F00020F00100704730D24FEAD42C11F50011AE
:1039000024F400641BD0B1FA81F20B3AA41AA41E6D
:10391000D2F12003914030FA03F31943904001EBB8
:10392000CC71002C01EB0451BDE81040A8BF7047DA
:1039300001F1C0414FF0000001F000417047B0FAC2
:1039400080F310FA03F100D110BDE41A173C4805CA
:10395000C90AE4E701EB045110BD491001EB045121
:10396000BDE810404FEA300002E04FF00001704720
:103970004A0008BF0042F8D0B2F5001F28BF7047C8
:1039800001F000414FF0000070479EEA445F07D00D
:1039900011EA5E0FBDE8104004BF0021002070470F
:1039A000BDE8104070B5FFF795FE00BF40DFF63E62
:1039B00083F00041104670470000E0FF43004FEAEB
:1039C000D30C4FEA3C0C43401FBF40070CF1605141
:1039D00013F0FE4F70471CF0006F03D100200CF075
:1039E000004170470CF0004343EA507010B540EAC4
:1039F000CC0000F00EF800BF000000924FEA00017A
:103A0000FFF7B6BE4FF000414FF00000A1F50021D6
:103A100070470EF1020E2EF0030E5EF8044B2442A6
:103A200004D44FEA4102B2F17F4F11D84FEA40036C
:103A3000B3F17F4F0CD80ED14FEAD07CB2F17F4F5B
:103A40000CEB4C0C0CF1020C08BF4CEBD17C04E0ED
:103A50004FF0080C01E04FEAD17C0CEB4C0324FA48
:103A600003F404F00704B4F1040C06D20EEB840C4A
:103A7000BDE810404CF0010C6047DFE80CF007088F
:103A800002024FF00040A0F5800010BD0846420041
:103A900018BFD2F1807288BF00F0004010BD4FF017
:103AA0004070E1EE100A7047FF2141EAD050C00596
:103AB00070470000D43A0008000000209C0000007D
:103AC000C4010008703B00089C000020540E000058
:103AD000E0010008000000000000000000000000FD
:103AE00000000000000000000000000000000000D6
:103AF00000000000000000000000000000000000C6
:103B000000000000000000000000000000000000B5
:103B100000000000000000000000000000000000A5
:103B20000000000000000000000000000000000095
:103B30000000000001020304010203040607080953
:103B40000000000000000000000000000000000075
:103B50000000000000000000000000000000000065
:103B60000000000000000000000000000000000055
:040000050800018965
:00000001FF
